{
	"FundMe.sol": {
		"FundMe": {
			"abi": [
				{
					"inputs": [],
					"stateMutability": "nonpayable",
					"type": "constructor"
				},
				{
					"anonymous": false,
					"inputs": [
						{
							"indexed": true,
							"internalType": "address",
							"name": "from",
							"type": "address"
						},
						{
							"indexed": false,
							"internalType": "uint256",
							"name": "amount",
							"type": "uint256"
						}
					],
					"name": "FundReceived",
					"type": "event"
				},
				{
					"inputs": [],
					"name": "fund",
					"outputs": [],
					"stateMutability": "payable",
					"type": "function"
				},
				{
					"inputs": [
						{
							"internalType": "address",
							"name": "",
							"type": "address"
						}
					],
					"name": "funderToAmount",
					"outputs": [
						{
							"internalType": "uint256",
							"name": "",
							"type": "uint256"
						}
					],
					"stateMutability": "view",
					"type": "function"
				},
				{
					"inputs": [],
					"name": "getChainlinkDataFeedLatestAnswer",
					"outputs": [
						{
							"internalType": "int256",
							"name": "",
							"type": "int256"
						}
					],
					"stateMutability": "view",
					"type": "function"
				}
			],
			"devdoc": {
				"kind": "dev",
				"methods": {},
				"version": 1
			},
			"evm": {
				"assembly": "    /* \"FundMe.sol\":390:1702  contract FundMe{... */\n  mstore(0x40, 0x80)\n    /* \"FundMe.sol\":495:508  100* 10 ** 18 */\n  0x056bc75e2d63100000\n    /* \"FundMe.sol\":472:508  uint256 MINIUM_VALUE = 100* 10 ** 18 */\n  0x01\n  sstore\n    /* \"FundMe.sol\":681:810  constructor(){... */\n  callvalue\n  dup1\n  iszero\n  tag_1\n  jumpi\n  0x00\n  dup1\n  revert\ntag_1:\n  pop\n    /* \"FundMe.sol\":759:801  0x694AA1769357215DE4FAC081bf1f309aDC325306 */\n  0x694aa1769357215de4fac081bf1f309adc325306\n    /* \"FundMe.sol\":726:734  dataFeed */\n  0x02\n  0x00\n    /* \"FundMe.sol\":726:802  dataFeed = AggregatorV3Interface(0x694AA1769357215DE4FAC081bf1f309aDC325306) */\n  0x0100\n  exp\n  dup2\n  sload\n  dup2\n  0xffffffffffffffffffffffffffffffffffffffff\n  mul\n  not\n  and\n  swap1\n  dup4\n  0xffffffffffffffffffffffffffffffffffffffff\n  and\n  mul\n  or\n  swap1\n  sstore\n  pop\n    /* \"FundMe.sol\":390:1702  contract FundMe{... */\n  dataSize(sub_0)\n  dup1\n  dataOffset(sub_0)\n  0x00\n  codecopy\n  0x00\n  return\nstop\n\nsub_0: assembly {\n        /* \"FundMe.sol\":390:1702  contract FundMe{... */\n      mstore(0x40, 0x80)\n      jumpi(tag_1, lt(calldatasize, 0x04))\n      shr(0xe0, calldataload(0x00))\n      dup1\n      0x4407e1e8\n      eq\n      tag_2\n      jumpi\n      dup1\n      0xb60d4288\n      eq\n      tag_3\n      jumpi\n      dup1\n      0xbea4dfb5\n      eq\n      tag_4\n      jumpi\n    tag_1:\n      0x00\n      dup1\n      revert\n        /* \"FundMe.sol\":414:463  mapping(address => uint256) public funderToAmount */\n    tag_2:\n      callvalue\n      dup1\n      iszero\n      tag_5\n      jumpi\n      0x00\n      dup1\n      revert\n    tag_5:\n      pop\n      tag_6\n      0x04\n      dup1\n      calldatasize\n      sub\n      dup2\n      add\n      swap1\n      tag_7\n      swap2\n      swap1\n      tag_8\n      jump\t// in\n    tag_7:\n      tag_9\n      jump\t// in\n    tag_6:\n      mload(0x40)\n      tag_10\n      swap2\n      swap1\n      tag_11\n      jump\t// in\n    tag_10:\n      mload(0x40)\n      dup1\n      swap2\n      sub\n      swap1\n      return\n        /* \"FundMe.sol\":818:1071  function fund() external payable  {... */\n    tag_3:\n      tag_12\n      tag_13\n      jump\t// in\n    tag_12:\n      stop\n        /* \"FundMe.sol\":1138:1486  function getChainlinkDataFeedLatestAnswer() public view returns (int) {... */\n    tag_4:\n      callvalue\n      dup1\n      iszero\n      tag_14\n      jumpi\n      0x00\n      dup1\n      revert\n    tag_14:\n      pop\n      tag_15\n      tag_16\n      jump\t// in\n    tag_15:\n      mload(0x40)\n      tag_17\n      swap2\n      swap1\n      tag_18\n      jump\t// in\n    tag_17:\n      mload(0x40)\n      dup1\n      swap2\n      sub\n      swap1\n      return\n        /* \"FundMe.sol\":414:463  mapping(address => uint256) public funderToAmount */\n    tag_9:\n      mstore(0x20, 0x00)\n      dup1\n      0x00\n      mstore\n      keccak256(0x00, 0x40)\n      0x00\n      swap2\n      pop\n      swap1\n      pop\n      sload\n      dup2\n      jump\t// out\n        /* \"FundMe.sol\":818:1071  function fund() external payable  {... */\n    tag_13:\n        /* \"FundMe.sol\":901:913  MINIUM_VALUE */\n      sload(0x01)\n        /* \"FundMe.sol\":871:897  convertEthToUsd(msg.value) */\n      tag_20\n        /* \"FundMe.sol\":887:896  msg.value */\n      callvalue\n        /* \"FundMe.sol\":871:886  convertEthToUsd */\n      tag_21\n        /* \"FundMe.sol\":871:897  convertEthToUsd(msg.value) */\n      jump\t// in\n    tag_20:\n        /* \"FundMe.sol\":871:913  convertEthToUsd(msg.value) >= MINIUM_VALUE */\n      lt\n      iszero\n        /* \"FundMe.sol\":863:930  require(convertEthToUsd(msg.value) >= MINIUM_VALUE,\"Send more ETH\") */\n      tag_22\n      jumpi\n      mload(0x40)\n      0x08c379a000000000000000000000000000000000000000000000000000000000\n      dup2\n      mstore\n      0x04\n      add\n      tag_23\n      swap1\n      tag_24\n      jump\t// in\n    tag_23:\n      mload(0x40)\n      dup1\n      swap2\n      sub\n      swap1\n      revert\n    tag_22:\n        /* \"FundMe.sol\":980:989  msg.value */\n      callvalue\n        /* \"FundMe.sol\":951:965  funderToAmount */\n      0x00\n        /* \"FundMe.sol\":951:977  funderToAmount[msg.sender] */\n      dup1\n        /* \"FundMe.sol\":966:976  msg.sender */\n      caller\n        /* \"FundMe.sol\":951:977  funderToAmount[msg.sender] */\n      0xffffffffffffffffffffffffffffffffffffffff\n      and\n      0xffffffffffffffffffffffffffffffffffffffff\n      and\n      dup2\n      mstore\n      0x20\n      add\n      swap1\n      dup2\n      mstore\n      0x20\n      add\n      0x00\n      keccak256\n        /* \"FundMe.sol\":951:989  funderToAmount[msg.sender] = msg.value */\n      dup2\n      swap1\n      sstore\n      pop\n        /* \"FundMe.sol\":1018:1028  msg.sender */\n      caller\n        /* \"FundMe.sol\":1005:1040  FundReceived(msg.sender, msg.value) */\n      0xffffffffffffffffffffffffffffffffffffffff\n      and\n      0x54a5b8782470a0d2c022b3b9e5e729503ac5dbdfe053afeb4559f9297f7565a6\n        /* \"FundMe.sol\":1030:1039  msg.value */\n      callvalue\n        /* \"FundMe.sol\":1005:1040  FundReceived(msg.sender, msg.value) */\n      mload(0x40)\n      tag_25\n      swap2\n      swap1\n      tag_11\n      jump\t// in\n    tag_25:\n      mload(0x40)\n      dup1\n      swap2\n      sub\n      swap1\n      log2\n        /* \"FundMe.sol\":818:1071  function fund() external payable  {... */\n      jump\t// out\n        /* \"FundMe.sol\":1138:1486  function getChainlinkDataFeedLatestAnswer() public view returns (int) {... */\n    tag_16:\n        /* \"FundMe.sol\":1203:1206  int */\n      0x00\n        /* \"FundMe.sol\":1297:1307  int answer */\n      dup1\n        /* \"FundMe.sol\":1428:1436  dataFeed */\n      0x02\n      0x00\n      swap1\n      sload\n      swap1\n      0x0100\n      exp\n      swap1\n      div\n      0xffffffffffffffffffffffffffffffffffffffff\n      and\n        /* \"FundMe.sol\":1428:1452  dataFeed.latestRoundData */\n      0xffffffffffffffffffffffffffffffffffffffff\n      and\n      0xfeaf968c\n        /* \"FundMe.sol\":1428:1454  dataFeed.latestRoundData() */\n      mload(0x40)\n      dup2\n      0xffffffff\n      and\n      0xe0\n      shl\n      dup2\n      mstore\n      0x04\n      add\n      0xa0\n      mload(0x40)\n      dup1\n      dup4\n      sub\n      dup2\n      dup7\n      gas\n      staticcall\n      iszero\n      dup1\n      iszero\n      tag_28\n      jumpi\n      returndatasize\n      0x00\n      dup1\n      returndatacopy\n      revert(0x00, returndatasize)\n    tag_28:\n      pop\n      pop\n      pop\n      pop\n      mload(0x40)\n      returndatasize\n      not(0x1f)\n      0x1f\n      dup3\n      add\n      and\n      dup3\n      add\n      dup1\n      0x40\n      mstore\n      pop\n      dup2\n      add\n      swap1\n      tag_29\n      swap2\n      swap1\n      tag_30\n      jump\t// in\n    tag_29:\n        /* \"FundMe.sol\":1247:1454  (... */\n      pop\n      pop\n      pop\n      swap2\n      pop\n      pop\n        /* \"FundMe.sol\":1472:1478  answer */\n      dup1\n        /* \"FundMe.sol\":1465:1478  return answer */\n      swap2\n      pop\n      pop\n        /* \"FundMe.sol\":1138:1486  function getChainlinkDataFeedLatestAnswer() public view returns (int) {... */\n      swap1\n      jump\t// out\n        /* \"FundMe.sol\":1494:1699  function convertEthToUsd(uint256 ethAmount) internal  view returns (uint256){... */\n    tag_21:\n        /* \"FundMe.sol\":1562:1569  uint256 */\n      0x00\n        /* \"FundMe.sol\":1581:1597  uint256 ethPrice */\n      dup1\n        /* \"FundMe.sol\":1608:1642  getChainlinkDataFeedLatestAnswer() */\n      tag_32\n        /* \"FundMe.sol\":1608:1640  getChainlinkDataFeedLatestAnswer */\n      tag_16\n        /* \"FundMe.sol\":1608:1642  getChainlinkDataFeedLatestAnswer() */\n      jump\t// in\n    tag_32:\n        /* \"FundMe.sol\":1581:1643  uint256 ethPrice = uint256(getChainlinkDataFeedLatestAnswer()) */\n      swap1\n      pop\n        /* \"FundMe.sol\":1684:1690  10 **8 */\n      0x05f5e100\n        /* \"FundMe.sol\":1673:1681  ethPrice */\n      dup2\n        /* \"FundMe.sol\":1661:1670  ethAmount */\n      dup5\n        /* \"FundMe.sol\":1661:1681  ethAmount * ethPrice */\n      tag_33\n      swap2\n      swap1\n      tag_34\n      jump\t// in\n    tag_33:\n        /* \"FundMe.sol\":1661:1691  ethAmount * ethPrice/ (10 **8) */\n      tag_35\n      swap2\n      swap1\n      tag_36\n      jump\t// in\n    tag_35:\n        /* \"FundMe.sol\":1654:1691  return ethAmount * ethPrice/ (10 **8) */\n      swap2\n      pop\n      pop\n        /* \"FundMe.sol\":1494:1699  function convertEthToUsd(uint256 ethAmount) internal  view returns (uint256){... */\n      swap2\n      swap1\n      pop\n      jump\t// out\n        /* \"#utility.yul\":88:205   */\n    tag_38:\n        /* \"#utility.yul\":197:198   */\n      0x00\n        /* \"#utility.yul\":194:195   */\n      dup1\n        /* \"#utility.yul\":187:199   */\n      revert\n        /* \"#utility.yul\":334:460   */\n    tag_40:\n        /* \"#utility.yul\":371:378   */\n      0x00\n        /* \"#utility.yul\":411:453   */\n      0xffffffffffffffffffffffffffffffffffffffff\n        /* \"#utility.yul\":404:409   */\n      dup3\n        /* \"#utility.yul\":400:454   */\n      and\n        /* \"#utility.yul\":389:454   */\n      swap1\n      pop\n        /* \"#utility.yul\":334:460   */\n      swap2\n      swap1\n      pop\n      jump\t// out\n        /* \"#utility.yul\":466:562   */\n    tag_41:\n        /* \"#utility.yul\":503:510   */\n      0x00\n        /* \"#utility.yul\":532:556   */\n      tag_66\n        /* \"#utility.yul\":550:555   */\n      dup3\n        /* \"#utility.yul\":532:556   */\n      tag_40\n      jump\t// in\n    tag_66:\n        /* \"#utility.yul\":521:556   */\n      swap1\n      pop\n        /* \"#utility.yul\":466:562   */\n      swap2\n      swap1\n      pop\n      jump\t// out\n        /* \"#utility.yul\":568:690   */\n    tag_42:\n        /* \"#utility.yul\":641:665   */\n      tag_68\n        /* \"#utility.yul\":659:664   */\n      dup2\n        /* \"#utility.yul\":641:665   */\n      tag_41\n      jump\t// in\n    tag_68:\n        /* \"#utility.yul\":634:639   */\n      dup2\n        /* \"#utility.yul\":631:666   */\n      eq\n        /* \"#utility.yul\":621:684   */\n      tag_69\n      jumpi\n        /* \"#utility.yul\":680:681   */\n      0x00\n        /* \"#utility.yul\":677:678   */\n      dup1\n        /* \"#utility.yul\":670:682   */\n      revert\n        /* \"#utility.yul\":621:684   */\n    tag_69:\n        /* \"#utility.yul\":568:690   */\n      pop\n      jump\t// out\n        /* \"#utility.yul\":696:835   */\n    tag_43:\n        /* \"#utility.yul\":742:747   */\n      0x00\n        /* \"#utility.yul\":780:786   */\n      dup2\n        /* \"#utility.yul\":767:787   */\n      calldataload\n        /* \"#utility.yul\":758:787   */\n      swap1\n      pop\n        /* \"#utility.yul\":796:829   */\n      tag_71\n        /* \"#utility.yul\":823:828   */\n      dup2\n        /* \"#utility.yul\":796:829   */\n      tag_42\n      jump\t// in\n    tag_71:\n        /* \"#utility.yul\":696:835   */\n      swap3\n      swap2\n      pop\n      pop\n      jump\t// out\n        /* \"#utility.yul\":841:1170   */\n    tag_8:\n        /* \"#utility.yul\":900:906   */\n      0x00\n        /* \"#utility.yul\":949:951   */\n      0x20\n        /* \"#utility.yul\":937:946   */\n      dup3\n        /* \"#utility.yul\":928:935   */\n      dup5\n        /* \"#utility.yul\":924:947   */\n      sub\n        /* \"#utility.yul\":920:952   */\n      slt\n        /* \"#utility.yul\":917:1036   */\n      iszero\n      tag_73\n      jumpi\n        /* \"#utility.yul\":955:1034   */\n      tag_74\n      tag_38\n      jump\t// in\n    tag_74:\n        /* \"#utility.yul\":917:1036   */\n    tag_73:\n        /* \"#utility.yul\":1075:1076   */\n      0x00\n        /* \"#utility.yul\":1100:1153   */\n      tag_75\n        /* \"#utility.yul\":1145:1152   */\n      dup5\n        /* \"#utility.yul\":1136:1142   */\n      dup3\n        /* \"#utility.yul\":1125:1134   */\n      dup6\n        /* \"#utility.yul\":1121:1143   */\n      add\n        /* \"#utility.yul\":1100:1153   */\n      tag_43\n      jump\t// in\n    tag_75:\n        /* \"#utility.yul\":1090:1153   */\n      swap2\n      pop\n        /* \"#utility.yul\":1046:1163   */\n      pop\n        /* \"#utility.yul\":841:1170   */\n      swap3\n      swap2\n      pop\n      pop\n      jump\t// out\n        /* \"#utility.yul\":1176:1253   */\n    tag_44:\n        /* \"#utility.yul\":1213:1220   */\n      0x00\n        /* \"#utility.yul\":1242:1247   */\n      dup2\n        /* \"#utility.yul\":1231:1247   */\n      swap1\n      pop\n        /* \"#utility.yul\":1176:1253   */\n      swap2\n      swap1\n      pop\n      jump\t// out\n        /* \"#utility.yul\":1259:1377   */\n    tag_45:\n        /* \"#utility.yul\":1346:1370   */\n      tag_78\n        /* \"#utility.yul\":1364:1369   */\n      dup2\n        /* \"#utility.yul\":1346:1370   */\n      tag_44\n      jump\t// in\n    tag_78:\n        /* \"#utility.yul\":1341:1344   */\n      dup3\n        /* \"#utility.yul\":1334:1371   */\n      mstore\n        /* \"#utility.yul\":1259:1377   */\n      pop\n      pop\n      jump\t// out\n        /* \"#utility.yul\":1383:1605   */\n    tag_11:\n        /* \"#utility.yul\":1476:1480   */\n      0x00\n        /* \"#utility.yul\":1514:1516   */\n      0x20\n        /* \"#utility.yul\":1503:1512   */\n      dup3\n        /* \"#utility.yul\":1499:1517   */\n      add\n        /* \"#utility.yul\":1491:1517   */\n      swap1\n      pop\n        /* \"#utility.yul\":1527:1598   */\n      tag_80\n        /* \"#utility.yul\":1595:1596   */\n      0x00\n        /* \"#utility.yul\":1584:1593   */\n      dup4\n        /* \"#utility.yul\":1580:1597   */\n      add\n        /* \"#utility.yul\":1571:1577   */\n      dup5\n        /* \"#utility.yul\":1527:1598   */\n      tag_45\n      jump\t// in\n    tag_80:\n        /* \"#utility.yul\":1383:1605   */\n      swap3\n      swap2\n      pop\n      pop\n      jump\t// out\n        /* \"#utility.yul\":1611:1687   */\n    tag_46:\n        /* \"#utility.yul\":1647:1654   */\n      0x00\n        /* \"#utility.yul\":1676:1681   */\n      dup2\n        /* \"#utility.yul\":1665:1681   */\n      swap1\n      pop\n        /* \"#utility.yul\":1611:1687   */\n      swap2\n      swap1\n      pop\n      jump\t// out\n        /* \"#utility.yul\":1693:1808   */\n    tag_47:\n        /* \"#utility.yul\":1778:1801   */\n      tag_83\n        /* \"#utility.yul\":1795:1800   */\n      dup2\n        /* \"#utility.yul\":1778:1801   */\n      tag_46\n      jump\t// in\n    tag_83:\n        /* \"#utility.yul\":1773:1776   */\n      dup3\n        /* \"#utility.yul\":1766:1802   */\n      mstore\n        /* \"#utility.yul\":1693:1808   */\n      pop\n      pop\n      jump\t// out\n        /* \"#utility.yul\":1814:2032   */\n    tag_18:\n        /* \"#utility.yul\":1905:1909   */\n      0x00\n        /* \"#utility.yul\":1943:1945   */\n      0x20\n        /* \"#utility.yul\":1932:1941   */\n      dup3\n        /* \"#utility.yul\":1928:1946   */\n      add\n        /* \"#utility.yul\":1920:1946   */\n      swap1\n      pop\n        /* \"#utility.yul\":1956:2025   */\n      tag_85\n        /* \"#utility.yul\":2022:2023   */\n      0x00\n        /* \"#utility.yul\":2011:2020   */\n      dup4\n        /* \"#utility.yul\":2007:2024   */\n      add\n        /* \"#utility.yul\":1998:2004   */\n      dup5\n        /* \"#utility.yul\":1956:2025   */\n      tag_47\n      jump\t// in\n    tag_85:\n        /* \"#utility.yul\":1814:2032   */\n      swap3\n      swap2\n      pop\n      pop\n      jump\t// out\n        /* \"#utility.yul\":2038:2207   */\n    tag_48:\n        /* \"#utility.yul\":2122:2133   */\n      0x00\n        /* \"#utility.yul\":2156:2162   */\n      dup3\n        /* \"#utility.yul\":2151:2154   */\n      dup3\n        /* \"#utility.yul\":2144:2163   */\n      mstore\n        /* \"#utility.yul\":2196:2200   */\n      0x20\n        /* \"#utility.yul\":2191:2194   */\n      dup3\n        /* \"#utility.yul\":2187:2201   */\n      add\n        /* \"#utility.yul\":2172:2201   */\n      swap1\n      pop\n        /* \"#utility.yul\":2038:2207   */\n      swap3\n      swap2\n      pop\n      pop\n      jump\t// out\n        /* \"#utility.yul\":2213:2376   */\n    tag_49:\n        /* \"#utility.yul\":2353:2368   */\n      0x53656e64206d6f72652045544800000000000000000000000000000000000000\n        /* \"#utility.yul\":2349:2350   */\n      0x00\n        /* \"#utility.yul\":2341:2347   */\n      dup3\n        /* \"#utility.yul\":2337:2351   */\n      add\n        /* \"#utility.yul\":2330:2369   */\n      mstore\n        /* \"#utility.yul\":2213:2376   */\n      pop\n      jump\t// out\n        /* \"#utility.yul\":2382:2748   */\n    tag_50:\n        /* \"#utility.yul\":2524:2527   */\n      0x00\n        /* \"#utility.yul\":2545:2612   */\n      tag_89\n        /* \"#utility.yul\":2609:2611   */\n      0x0d\n        /* \"#utility.yul\":2604:2607   */\n      dup4\n        /* \"#utility.yul\":2545:2612   */\n      tag_48\n      jump\t// in\n    tag_89:\n        /* \"#utility.yul\":2538:2612   */\n      swap2\n      pop\n        /* \"#utility.yul\":2621:2714   */\n      tag_90\n        /* \"#utility.yul\":2710:2713   */\n      dup3\n        /* \"#utility.yul\":2621:2714   */\n      tag_49\n      jump\t// in\n    tag_90:\n        /* \"#utility.yul\":2739:2741   */\n      0x20\n        /* \"#utility.yul\":2734:2737   */\n      dup3\n        /* \"#utility.yul\":2730:2742   */\n      add\n        /* \"#utility.yul\":2723:2742   */\n      swap1\n      pop\n        /* \"#utility.yul\":2382:2748   */\n      swap2\n      swap1\n      pop\n      jump\t// out\n        /* \"#utility.yul\":2754:3173   */\n    tag_24:\n        /* \"#utility.yul\":2920:2924   */\n      0x00\n        /* \"#utility.yul\":2958:2960   */\n      0x20\n        /* \"#utility.yul\":2947:2956   */\n      dup3\n        /* \"#utility.yul\":2943:2961   */\n      add\n        /* \"#utility.yul\":2935:2961   */\n      swap1\n      pop\n        /* \"#utility.yul\":3007:3016   */\n      dup2\n        /* \"#utility.yul\":3001:3005   */\n      dup2\n        /* \"#utility.yul\":2997:3017   */\n      sub\n        /* \"#utility.yul\":2993:2994   */\n      0x00\n        /* \"#utility.yul\":2982:2991   */\n      dup4\n        /* \"#utility.yul\":2978:2995   */\n      add\n        /* \"#utility.yul\":2971:3018   */\n      mstore\n        /* \"#utility.yul\":3035:3166   */\n      tag_92\n        /* \"#utility.yul\":3161:3165   */\n      dup2\n        /* \"#utility.yul\":3035:3166   */\n      tag_50\n      jump\t// in\n    tag_92:\n        /* \"#utility.yul\":3027:3166   */\n      swap1\n      pop\n        /* \"#utility.yul\":2754:3173   */\n      swap2\n      swap1\n      pop\n      jump\t// out\n        /* \"#utility.yul\":3179:3284   */\n    tag_51:\n        /* \"#utility.yul\":3215:3222   */\n      0x00\n        /* \"#utility.yul\":3255:3277   */\n      0xffffffffffffffffffff\n        /* \"#utility.yul\":3248:3253   */\n      dup3\n        /* \"#utility.yul\":3244:3278   */\n      and\n        /* \"#utility.yul\":3233:3278   */\n      swap1\n      pop\n        /* \"#utility.yul\":3179:3284   */\n      swap2\n      swap1\n      pop\n      jump\t// out\n        /* \"#utility.yul\":3290:3410   */\n    tag_52:\n        /* \"#utility.yul\":3362:3385   */\n      tag_95\n        /* \"#utility.yul\":3379:3384   */\n      dup2\n        /* \"#utility.yul\":3362:3385   */\n      tag_51\n      jump\t// in\n    tag_95:\n        /* \"#utility.yul\":3355:3360   */\n      dup2\n        /* \"#utility.yul\":3352:3386   */\n      eq\n        /* \"#utility.yul\":3342:3404   */\n      tag_96\n      jumpi\n        /* \"#utility.yul\":3400:3401   */\n      0x00\n        /* \"#utility.yul\":3397:3398   */\n      dup1\n        /* \"#utility.yul\":3390:3402   */\n      revert\n        /* \"#utility.yul\":3342:3404   */\n    tag_96:\n        /* \"#utility.yul\":3290:3410   */\n      pop\n      jump\t// out\n        /* \"#utility.yul\":3416:3557   */\n    tag_53:\n        /* \"#utility.yul\":3472:3477   */\n      0x00\n        /* \"#utility.yul\":3503:3509   */\n      dup2\n        /* \"#utility.yul\":3497:3510   */\n      mload\n        /* \"#utility.yul\":3488:3510   */\n      swap1\n      pop\n        /* \"#utility.yul\":3519:3551   */\n      tag_98\n        /* \"#utility.yul\":3545:3550   */\n      dup2\n        /* \"#utility.yul\":3519:3551   */\n      tag_52\n      jump\t// in\n    tag_98:\n        /* \"#utility.yul\":3416:3557   */\n      swap3\n      swap2\n      pop\n      pop\n      jump\t// out\n        /* \"#utility.yul\":3563:3683   */\n    tag_54:\n        /* \"#utility.yul\":3635:3658   */\n      tag_100\n        /* \"#utility.yul\":3652:3657   */\n      dup2\n        /* \"#utility.yul\":3635:3658   */\n      tag_46\n      jump\t// in\n    tag_100:\n        /* \"#utility.yul\":3628:3633   */\n      dup2\n        /* \"#utility.yul\":3625:3659   */\n      eq\n        /* \"#utility.yul\":3615:3677   */\n      tag_101\n      jumpi\n        /* \"#utility.yul\":3673:3674   */\n      0x00\n        /* \"#utility.yul\":3670:3671   */\n      dup1\n        /* \"#utility.yul\":3663:3675   */\n      revert\n        /* \"#utility.yul\":3615:3677   */\n    tag_101:\n        /* \"#utility.yul\":3563:3683   */\n      pop\n      jump\t// out\n        /* \"#utility.yul\":3689:3830   */\n    tag_55:\n        /* \"#utility.yul\":3745:3750   */\n      0x00\n        /* \"#utility.yul\":3776:3782   */\n      dup2\n        /* \"#utility.yul\":3770:3783   */\n      mload\n        /* \"#utility.yul\":3761:3783   */\n      swap1\n      pop\n        /* \"#utility.yul\":3792:3824   */\n      tag_103\n        /* \"#utility.yul\":3818:3823   */\n      dup2\n        /* \"#utility.yul\":3792:3824   */\n      tag_54\n      jump\t// in\n    tag_103:\n        /* \"#utility.yul\":3689:3830   */\n      swap3\n      swap2\n      pop\n      pop\n      jump\t// out\n        /* \"#utility.yul\":3836:3958   */\n    tag_56:\n        /* \"#utility.yul\":3909:3933   */\n      tag_105\n        /* \"#utility.yul\":3927:3932   */\n      dup2\n        /* \"#utility.yul\":3909:3933   */\n      tag_44\n      jump\t// in\n    tag_105:\n        /* \"#utility.yul\":3902:3907   */\n      dup2\n        /* \"#utility.yul\":3899:3934   */\n      eq\n        /* \"#utility.yul\":3889:3952   */\n      tag_106\n      jumpi\n        /* \"#utility.yul\":3948:3949   */\n      0x00\n        /* \"#utility.yul\":3945:3946   */\n      dup1\n        /* \"#utility.yul\":3938:3950   */\n      revert\n        /* \"#utility.yul\":3889:3952   */\n    tag_106:\n        /* \"#utility.yul\":3836:3958   */\n      pop\n      jump\t// out\n        /* \"#utility.yul\":3964:4107   */\n    tag_57:\n        /* \"#utility.yul\":4021:4026   */\n      0x00\n        /* \"#utility.yul\":4052:4058   */\n      dup2\n        /* \"#utility.yul\":4046:4059   */\n      mload\n        /* \"#utility.yul\":4037:4059   */\n      swap1\n      pop\n        /* \"#utility.yul\":4068:4101   */\n      tag_108\n        /* \"#utility.yul\":4095:4100   */\n      dup2\n        /* \"#utility.yul\":4068:4101   */\n      tag_56\n      jump\t// in\n    tag_108:\n        /* \"#utility.yul\":3964:4107   */\n      swap3\n      swap2\n      pop\n      pop\n      jump\t// out\n        /* \"#utility.yul\":4113:5084   */\n    tag_30:\n        /* \"#utility.yul\":4216:4222   */\n      0x00\n        /* \"#utility.yul\":4224:4230   */\n      dup1\n        /* \"#utility.yul\":4232:4238   */\n      0x00\n        /* \"#utility.yul\":4240:4246   */\n      dup1\n        /* \"#utility.yul\":4248:4254   */\n      0x00\n        /* \"#utility.yul\":4297:4300   */\n      0xa0\n        /* \"#utility.yul\":4285:4294   */\n      dup7\n        /* \"#utility.yul\":4276:4283   */\n      dup9\n        /* \"#utility.yul\":4272:4295   */\n      sub\n        /* \"#utility.yul\":4268:4301   */\n      slt\n        /* \"#utility.yul\":4265:4385   */\n      iszero\n      tag_110\n      jumpi\n        /* \"#utility.yul\":4304:4383   */\n      tag_111\n      tag_38\n      jump\t// in\n    tag_111:\n        /* \"#utility.yul\":4265:4385   */\n    tag_110:\n        /* \"#utility.yul\":4424:4425   */\n      0x00\n        /* \"#utility.yul\":4449:4512   */\n      tag_112\n        /* \"#utility.yul\":4504:4511   */\n      dup9\n        /* \"#utility.yul\":4495:4501   */\n      dup3\n        /* \"#utility.yul\":4484:4493   */\n      dup10\n        /* \"#utility.yul\":4480:4502   */\n      add\n        /* \"#utility.yul\":4449:4512   */\n      tag_53\n      jump\t// in\n    tag_112:\n        /* \"#utility.yul\":4439:4512   */\n      swap6\n      pop\n        /* \"#utility.yul\":4395:4522   */\n      pop\n        /* \"#utility.yul\":4561:4563   */\n      0x20\n        /* \"#utility.yul\":4587:4650   */\n      tag_113\n        /* \"#utility.yul\":4642:4649   */\n      dup9\n        /* \"#utility.yul\":4633:4639   */\n      dup3\n        /* \"#utility.yul\":4622:4631   */\n      dup10\n        /* \"#utility.yul\":4618:4640   */\n      add\n        /* \"#utility.yul\":4587:4650   */\n      tag_55\n      jump\t// in\n    tag_113:\n        /* \"#utility.yul\":4577:4650   */\n      swap5\n      pop\n        /* \"#utility.yul\":4532:4660   */\n      pop\n        /* \"#utility.yul\":4699:4701   */\n      0x40\n        /* \"#utility.yul\":4725:4789   */\n      tag_114\n        /* \"#utility.yul\":4781:4788   */\n      dup9\n        /* \"#utility.yul\":4772:4778   */\n      dup3\n        /* \"#utility.yul\":4761:4770   */\n      dup10\n        /* \"#utility.yul\":4757:4779   */\n      add\n        /* \"#utility.yul\":4725:4789   */\n      tag_57\n      jump\t// in\n    tag_114:\n        /* \"#utility.yul\":4715:4789   */\n      swap4\n      pop\n        /* \"#utility.yul\":4670:4799   */\n      pop\n        /* \"#utility.yul\":4838:4840   */\n      0x60\n        /* \"#utility.yul\":4864:4928   */\n      tag_115\n        /* \"#utility.yul\":4920:4927   */\n      dup9\n        /* \"#utility.yul\":4911:4917   */\n      dup3\n        /* \"#utility.yul\":4900:4909   */\n      dup10\n        /* \"#utility.yul\":4896:4918   */\n      add\n        /* \"#utility.yul\":4864:4928   */\n      tag_57\n      jump\t// in\n    tag_115:\n        /* \"#utility.yul\":4854:4928   */\n      swap3\n      pop\n        /* \"#utility.yul\":4809:4938   */\n      pop\n        /* \"#utility.yul\":4977:4980   */\n      0x80\n        /* \"#utility.yul\":5004:5067   */\n      tag_116\n        /* \"#utility.yul\":5059:5066   */\n      dup9\n        /* \"#utility.yul\":5050:5056   */\n      dup3\n        /* \"#utility.yul\":5039:5048   */\n      dup10\n        /* \"#utility.yul\":5035:5057   */\n      add\n        /* \"#utility.yul\":5004:5067   */\n      tag_53\n      jump\t// in\n    tag_116:\n        /* \"#utility.yul\":4994:5067   */\n      swap2\n      pop\n        /* \"#utility.yul\":4948:5077   */\n      pop\n        /* \"#utility.yul\":4113:5084   */\n      swap3\n      swap6\n      pop\n      swap3\n      swap6\n      swap1\n      swap4\n      pop\n      jump\t// out\n        /* \"#utility.yul\":5090:5270   */\n    tag_58:\n        /* \"#utility.yul\":5138:5215   */\n      0x4e487b7100000000000000000000000000000000000000000000000000000000\n        /* \"#utility.yul\":5135:5136   */\n      0x00\n        /* \"#utility.yul\":5128:5216   */\n      mstore\n        /* \"#utility.yul\":5235:5239   */\n      0x11\n        /* \"#utility.yul\":5232:5233   */\n      0x04\n        /* \"#utility.yul\":5225:5240   */\n      mstore\n        /* \"#utility.yul\":5259:5263   */\n      0x24\n        /* \"#utility.yul\":5256:5257   */\n      0x00\n        /* \"#utility.yul\":5249:5264   */\n      revert\n        /* \"#utility.yul\":5276:5686   */\n    tag_34:\n        /* \"#utility.yul\":5316:5323   */\n      0x00\n        /* \"#utility.yul\":5339:5359   */\n      tag_119\n        /* \"#utility.yul\":5357:5358   */\n      dup3\n        /* \"#utility.yul\":5339:5359   */\n      tag_44\n      jump\t// in\n    tag_119:\n        /* \"#utility.yul\":5334:5359   */\n      swap2\n      pop\n        /* \"#utility.yul\":5373:5393   */\n      tag_120\n        /* \"#utility.yul\":5391:5392   */\n      dup4\n        /* \"#utility.yul\":5373:5393   */\n      tag_44\n      jump\t// in\n    tag_120:\n        /* \"#utility.yul\":5368:5393   */\n      swap3\n      pop\n        /* \"#utility.yul\":5428:5429   */\n      dup3\n        /* \"#utility.yul\":5425:5426   */\n      dup3\n        /* \"#utility.yul\":5421:5430   */\n      mul\n        /* \"#utility.yul\":5450:5480   */\n      tag_121\n        /* \"#utility.yul\":5468:5479   */\n      dup2\n        /* \"#utility.yul\":5450:5480   */\n      tag_44\n      jump\t// in\n    tag_121:\n        /* \"#utility.yul\":5439:5480   */\n      swap2\n      pop\n        /* \"#utility.yul\":5629:5630   */\n      dup3\n        /* \"#utility.yul\":5620:5627   */\n      dup3\n        /* \"#utility.yul\":5616:5631   */\n      div\n        /* \"#utility.yul\":5613:5614   */\n      dup5\n        /* \"#utility.yul\":5610:5632   */\n      eq\n        /* \"#utility.yul\":5590:5591   */\n      dup4\n        /* \"#utility.yul\":5583:5592   */\n      iszero\n        /* \"#utility.yul\":5563:5646   */\n      or\n        /* \"#utility.yul\":5540:5679   */\n      tag_122\n      jumpi\n        /* \"#utility.yul\":5659:5677   */\n      tag_123\n      tag_58\n      jump\t// in\n    tag_123:\n        /* \"#utility.yul\":5540:5679   */\n    tag_122:\n        /* \"#utility.yul\":5324:5686   */\n      pop\n        /* \"#utility.yul\":5276:5686   */\n      swap3\n      swap2\n      pop\n      pop\n      jump\t// out\n        /* \"#utility.yul\":5692:5872   */\n    tag_59:\n        /* \"#utility.yul\":5740:5817   */\n      0x4e487b7100000000000000000000000000000000000000000000000000000000\n        /* \"#utility.yul\":5737:5738   */\n      0x00\n        /* \"#utility.yul\":5730:5818   */\n      mstore\n        /* \"#utility.yul\":5837:5841   */\n      0x12\n        /* \"#utility.yul\":5834:5835   */\n      0x04\n        /* \"#utility.yul\":5827:5842   */\n      mstore\n        /* \"#utility.yul\":5861:5865   */\n      0x24\n        /* \"#utility.yul\":5858:5859   */\n      0x00\n        /* \"#utility.yul\":5851:5866   */\n      revert\n        /* \"#utility.yul\":5878:6063   */\n    tag_36:\n        /* \"#utility.yul\":5918:5919   */\n      0x00\n        /* \"#utility.yul\":5935:5955   */\n      tag_126\n        /* \"#utility.yul\":5953:5954   */\n      dup3\n        /* \"#utility.yul\":5935:5955   */\n      tag_44\n      jump\t// in\n    tag_126:\n        /* \"#utility.yul\":5930:5955   */\n      swap2\n      pop\n        /* \"#utility.yul\":5969:5989   */\n      tag_127\n        /* \"#utility.yul\":5987:5988   */\n      dup4\n        /* \"#utility.yul\":5969:5989   */\n      tag_44\n      jump\t// in\n    tag_127:\n        /* \"#utility.yul\":5964:5989   */\n      swap3\n      pop\n        /* \"#utility.yul\":6008:6009   */\n      dup3\n        /* \"#utility.yul\":5998:6033   */\n      tag_128\n      jumpi\n        /* \"#utility.yul\":6013:6031   */\n      tag_129\n      tag_59\n      jump\t// in\n    tag_129:\n        /* \"#utility.yul\":5998:6033   */\n    tag_128:\n        /* \"#utility.yul\":6055:6056   */\n      dup3\n        /* \"#utility.yul\":6052:6053   */\n      dup3\n        /* \"#utility.yul\":6048:6057   */\n      div\n        /* \"#utility.yul\":6043:6057   */\n      swap1\n      pop\n        /* \"#utility.yul\":5878:6063   */\n      swap3\n      swap2\n      pop\n      pop\n      jump\t// out\n\n    auxdata: 0xa2646970667358221220acab55dc40e9d0b16facb66e37fabb7f728b57b2739e6df811db3a303df7bb9f64736f6c63430008140033\n}\n",
				"bytecode": {
					"linkReferences": {},
					"object": "608060405268056bc75e2d6310000060015534801561001c575f80fd5b5073694aa1769357215de4fac081bf1f309adc32530660025f6101000a81548173ffffffffffffffffffffffffffffffffffffffff021916908373ffffffffffffffffffffffffffffffffffffffff1602179055506105d38061007e5f395ff3fe608060405260043610610033575f3560e01c80634407e1e814610037578063b60d428814610073578063bea4dfb51461007d575b5f80fd5b348015610042575f80fd5b5061005d600480360381019061005891906102c3565b6100a7565b60405161006a9190610306565b60405180910390f35b61007b6100bb565b005b348015610088575f80fd5b50610091610199565b60405161009e9190610337565b60405180910390f35b5f602052805f5260405f205f915090505481565b6001546100c734610236565b1015610108576040517f08c379a00000000000000000000000000000000000000000000000000000000081526004016100ff906103aa565b60405180910390fd5b345f803373ffffffffffffffffffffffffffffffffffffffff1673ffffffffffffffffffffffffffffffffffffffff1681526020019081526020015f20819055503373ffffffffffffffffffffffffffffffffffffffff167f54a5b8782470a0d2c022b3b9e5e729503ac5dbdfe053afeb4559f9297f7565a63460405161018f9190610306565b60405180910390a2565b5f8060025f9054906101000a900473ffffffffffffffffffffffffffffffffffffffff1673ffffffffffffffffffffffffffffffffffffffff1663feaf968c6040518163ffffffff1660e01b815260040160a060405180830381865afa158015610205573d5f803e3d5ffd5b505050506040513d601f19601f82011682018060405250810190610229919061045b565b5050509150508091505090565b5f80610240610199565b90506305f5e100818461025391906104ff565b61025d919061056d565b915050919050565b5f80fd5b5f73ffffffffffffffffffffffffffffffffffffffff82169050919050565b5f61029282610269565b9050919050565b6102a281610288565b81146102ac575f80fd5b50565b5f813590506102bd81610299565b92915050565b5f602082840312156102d8576102d7610265565b5b5f6102e5848285016102af565b91505092915050565b5f819050919050565b610300816102ee565b82525050565b5f6020820190506103195f8301846102f7565b92915050565b5f819050919050565b6103318161031f565b82525050565b5f60208201905061034a5f830184610328565b92915050565b5f82825260208201905092915050565b7f53656e64206d6f726520455448000000000000000000000000000000000000005f82015250565b5f610394600d83610350565b915061039f82610360565b602082019050919050565b5f6020820190508181035f8301526103c181610388565b9050919050565b5f69ffffffffffffffffffff82169050919050565b6103e6816103c8565b81146103f0575f80fd5b50565b5f81519050610401816103dd565b92915050565b6104108161031f565b811461041a575f80fd5b50565b5f8151905061042b81610407565b92915050565b61043a816102ee565b8114610444575f80fd5b50565b5f8151905061045581610431565b92915050565b5f805f805f60a0868803121561047457610473610265565b5b5f610481888289016103f3565b95505060206104928882890161041d565b94505060406104a388828901610447565b93505060606104b488828901610447565b92505060806104c5888289016103f3565b9150509295509295909350565b7f4e487b71000000000000000000000000000000000000000000000000000000005f52601160045260245ffd5b5f610509826102ee565b9150610514836102ee565b9250828202610522816102ee565b91508282048414831517610539576105386104d2565b5b5092915050565b7f4e487b71000000000000000000000000000000000000000000000000000000005f52601260045260245ffd5b5f610577826102ee565b9150610582836102ee565b92508261059257610591610540565b5b82820490509291505056fea2646970667358221220acab55dc40e9d0b16facb66e37fabb7f728b57b2739e6df811db3a303df7bb9f64736f6c63430008140033",
					"opcodes": "PUSH1 0x80 PUSH1 0x40 MSTORE PUSH9 0x56BC75E2D63100000 PUSH1 0x1 SSTORE CALLVALUE DUP1 ISZERO PUSH2 0x1C JUMPI PUSH0 DUP1 REVERT JUMPDEST POP PUSH20 0x694AA1769357215DE4FAC081BF1F309ADC325306 PUSH1 0x2 PUSH0 PUSH2 0x100 EXP DUP2 SLOAD DUP2 PUSH20 0xFFFFFFFFFFFFFFFFFFFFFFFFFFFFFFFFFFFFFFFF MUL NOT AND SWAP1 DUP4 PUSH20 0xFFFFFFFFFFFFFFFFFFFFFFFFFFFFFFFFFFFFFFFF AND MUL OR SWAP1 SSTORE POP PUSH2 0x5D3 DUP1 PUSH2 0x7E PUSH0 CODECOPY PUSH0 RETURN INVALID PUSH1 0x80 PUSH1 0x40 MSTORE PUSH1 0x4 CALLDATASIZE LT PUSH2 0x33 JUMPI PUSH0 CALLDATALOAD PUSH1 0xE0 SHR DUP1 PUSH4 0x4407E1E8 EQ PUSH2 0x37 JUMPI DUP1 PUSH4 0xB60D4288 EQ PUSH2 0x73 JUMPI DUP1 PUSH4 0xBEA4DFB5 EQ PUSH2 0x7D JUMPI JUMPDEST PUSH0 DUP1 REVERT JUMPDEST CALLVALUE DUP1 ISZERO PUSH2 0x42 JUMPI PUSH0 DUP1 REVERT JUMPDEST POP PUSH2 0x5D PUSH1 0x4 DUP1 CALLDATASIZE SUB DUP2 ADD SWAP1 PUSH2 0x58 SWAP2 SWAP1 PUSH2 0x2C3 JUMP JUMPDEST PUSH2 0xA7 JUMP JUMPDEST PUSH1 0x40 MLOAD PUSH2 0x6A SWAP2 SWAP1 PUSH2 0x306 JUMP JUMPDEST PUSH1 0x40 MLOAD DUP1 SWAP2 SUB SWAP1 RETURN JUMPDEST PUSH2 0x7B PUSH2 0xBB JUMP JUMPDEST STOP JUMPDEST CALLVALUE DUP1 ISZERO PUSH2 0x88 JUMPI PUSH0 DUP1 REVERT JUMPDEST POP PUSH2 0x91 PUSH2 0x199 JUMP JUMPDEST PUSH1 0x40 MLOAD PUSH2 0x9E SWAP2 SWAP1 PUSH2 0x337 JUMP JUMPDEST PUSH1 0x40 MLOAD DUP1 SWAP2 SUB SWAP1 RETURN JUMPDEST PUSH0 PUSH1 0x20 MSTORE DUP1 PUSH0 MSTORE PUSH1 0x40 PUSH0 KECCAK256 PUSH0 SWAP2 POP SWAP1 POP SLOAD DUP2 JUMP JUMPDEST PUSH1 0x1 SLOAD PUSH2 0xC7 CALLVALUE PUSH2 0x236 JUMP JUMPDEST LT ISZERO PUSH2 0x108 JUMPI PUSH1 0x40 MLOAD PUSH32 0x8C379A000000000000000000000000000000000000000000000000000000000 DUP2 MSTORE PUSH1 0x4 ADD PUSH2 0xFF SWAP1 PUSH2 0x3AA JUMP JUMPDEST PUSH1 0x40 MLOAD DUP1 SWAP2 SUB SWAP1 REVERT JUMPDEST CALLVALUE PUSH0 DUP1 CALLER PUSH20 0xFFFFFFFFFFFFFFFFFFFFFFFFFFFFFFFFFFFFFFFF AND PUSH20 0xFFFFFFFFFFFFFFFFFFFFFFFFFFFFFFFFFFFFFFFF AND DUP2 MSTORE PUSH1 0x20 ADD SWAP1 DUP2 MSTORE PUSH1 0x20 ADD PUSH0 KECCAK256 DUP2 SWAP1 SSTORE POP CALLER PUSH20 0xFFFFFFFFFFFFFFFFFFFFFFFFFFFFFFFFFFFFFFFF AND PUSH32 0x54A5B8782470A0D2C022B3B9E5E729503AC5DBDFE053AFEB4559F9297F7565A6 CALLVALUE PUSH1 0x40 MLOAD PUSH2 0x18F SWAP2 SWAP1 PUSH2 0x306 JUMP JUMPDEST PUSH1 0x40 MLOAD DUP1 SWAP2 SUB SWAP1 LOG2 JUMP JUMPDEST PUSH0 DUP1 PUSH1 0x2 PUSH0 SWAP1 SLOAD SWAP1 PUSH2 0x100 EXP SWAP1 DIV PUSH20 0xFFFFFFFFFFFFFFFFFFFFFFFFFFFFFFFFFFFFFFFF AND PUSH20 0xFFFFFFFFFFFFFFFFFFFFFFFFFFFFFFFFFFFFFFFF AND PUSH4 0xFEAF968C PUSH1 0x40 MLOAD DUP2 PUSH4 0xFFFFFFFF AND PUSH1 0xE0 SHL DUP2 MSTORE PUSH1 0x4 ADD PUSH1 0xA0 PUSH1 0x40 MLOAD DUP1 DUP4 SUB DUP2 DUP7 GAS STATICCALL ISZERO DUP1 ISZERO PUSH2 0x205 JUMPI RETURNDATASIZE PUSH0 DUP1 RETURNDATACOPY RETURNDATASIZE PUSH0 REVERT JUMPDEST POP POP POP POP PUSH1 0x40 MLOAD RETURNDATASIZE PUSH1 0x1F NOT PUSH1 0x1F DUP3 ADD AND DUP3 ADD DUP1 PUSH1 0x40 MSTORE POP DUP2 ADD SWAP1 PUSH2 0x229 SWAP2 SWAP1 PUSH2 0x45B JUMP JUMPDEST POP POP POP SWAP2 POP POP DUP1 SWAP2 POP POP SWAP1 JUMP JUMPDEST PUSH0 DUP1 PUSH2 0x240 PUSH2 0x199 JUMP JUMPDEST SWAP1 POP PUSH4 0x5F5E100 DUP2 DUP5 PUSH2 0x253 SWAP2 SWAP1 PUSH2 0x4FF JUMP JUMPDEST PUSH2 0x25D SWAP2 SWAP1 PUSH2 0x56D JUMP JUMPDEST SWAP2 POP POP SWAP2 SWAP1 POP JUMP JUMPDEST PUSH0 DUP1 REVERT JUMPDEST PUSH0 PUSH20 0xFFFFFFFFFFFFFFFFFFFFFFFFFFFFFFFFFFFFFFFF DUP3 AND SWAP1 POP SWAP2 SWAP1 POP JUMP JUMPDEST PUSH0 PUSH2 0x292 DUP3 PUSH2 0x269 JUMP JUMPDEST SWAP1 POP SWAP2 SWAP1 POP JUMP JUMPDEST PUSH2 0x2A2 DUP2 PUSH2 0x288 JUMP JUMPDEST DUP2 EQ PUSH2 0x2AC JUMPI PUSH0 DUP1 REVERT JUMPDEST POP JUMP JUMPDEST PUSH0 DUP2 CALLDATALOAD SWAP1 POP PUSH2 0x2BD DUP2 PUSH2 0x299 JUMP JUMPDEST SWAP3 SWAP2 POP POP JUMP JUMPDEST PUSH0 PUSH1 0x20 DUP3 DUP5 SUB SLT ISZERO PUSH2 0x2D8 JUMPI PUSH2 0x2D7 PUSH2 0x265 JUMP JUMPDEST JUMPDEST PUSH0 PUSH2 0x2E5 DUP5 DUP3 DUP6 ADD PUSH2 0x2AF JUMP JUMPDEST SWAP2 POP POP SWAP3 SWAP2 POP POP JUMP JUMPDEST PUSH0 DUP2 SWAP1 POP SWAP2 SWAP1 POP JUMP JUMPDEST PUSH2 0x300 DUP2 PUSH2 0x2EE JUMP JUMPDEST DUP3 MSTORE POP POP JUMP JUMPDEST PUSH0 PUSH1 0x20 DUP3 ADD SWAP1 POP PUSH2 0x319 PUSH0 DUP4 ADD DUP5 PUSH2 0x2F7 JUMP JUMPDEST SWAP3 SWAP2 POP POP JUMP JUMPDEST PUSH0 DUP2 SWAP1 POP SWAP2 SWAP1 POP JUMP JUMPDEST PUSH2 0x331 DUP2 PUSH2 0x31F JUMP JUMPDEST DUP3 MSTORE POP POP JUMP JUMPDEST PUSH0 PUSH1 0x20 DUP3 ADD SWAP1 POP PUSH2 0x34A PUSH0 DUP4 ADD DUP5 PUSH2 0x328 JUMP JUMPDEST SWAP3 SWAP2 POP POP JUMP JUMPDEST PUSH0 DUP3 DUP3 MSTORE PUSH1 0x20 DUP3 ADD SWAP1 POP SWAP3 SWAP2 POP POP JUMP JUMPDEST PUSH32 0x53656E64206D6F72652045544800000000000000000000000000000000000000 PUSH0 DUP3 ADD MSTORE POP JUMP JUMPDEST PUSH0 PUSH2 0x394 PUSH1 0xD DUP4 PUSH2 0x350 JUMP JUMPDEST SWAP2 POP PUSH2 0x39F DUP3 PUSH2 0x360 JUMP JUMPDEST PUSH1 0x20 DUP3 ADD SWAP1 POP SWAP2 SWAP1 POP JUMP JUMPDEST PUSH0 PUSH1 0x20 DUP3 ADD SWAP1 POP DUP2 DUP2 SUB PUSH0 DUP4 ADD MSTORE PUSH2 0x3C1 DUP2 PUSH2 0x388 JUMP JUMPDEST SWAP1 POP SWAP2 SWAP1 POP JUMP JUMPDEST PUSH0 PUSH10 0xFFFFFFFFFFFFFFFFFFFF DUP3 AND SWAP1 POP SWAP2 SWAP1 POP JUMP JUMPDEST PUSH2 0x3E6 DUP2 PUSH2 0x3C8 JUMP JUMPDEST DUP2 EQ PUSH2 0x3F0 JUMPI PUSH0 DUP1 REVERT JUMPDEST POP JUMP JUMPDEST PUSH0 DUP2 MLOAD SWAP1 POP PUSH2 0x401 DUP2 PUSH2 0x3DD JUMP JUMPDEST SWAP3 SWAP2 POP POP JUMP JUMPDEST PUSH2 0x410 DUP2 PUSH2 0x31F JUMP JUMPDEST DUP2 EQ PUSH2 0x41A JUMPI PUSH0 DUP1 REVERT JUMPDEST POP JUMP JUMPDEST PUSH0 DUP2 MLOAD SWAP1 POP PUSH2 0x42B DUP2 PUSH2 0x407 JUMP JUMPDEST SWAP3 SWAP2 POP POP JUMP JUMPDEST PUSH2 0x43A DUP2 PUSH2 0x2EE JUMP JUMPDEST DUP2 EQ PUSH2 0x444 JUMPI PUSH0 DUP1 REVERT JUMPDEST POP JUMP JUMPDEST PUSH0 DUP2 MLOAD SWAP1 POP PUSH2 0x455 DUP2 PUSH2 0x431 JUMP JUMPDEST SWAP3 SWAP2 POP POP JUMP JUMPDEST PUSH0 DUP1 PUSH0 DUP1 PUSH0 PUSH1 0xA0 DUP7 DUP9 SUB SLT ISZERO PUSH2 0x474 JUMPI PUSH2 0x473 PUSH2 0x265 JUMP JUMPDEST JUMPDEST PUSH0 PUSH2 0x481 DUP9 DUP3 DUP10 ADD PUSH2 0x3F3 JUMP JUMPDEST SWAP6 POP POP PUSH1 0x20 PUSH2 0x492 DUP9 DUP3 DUP10 ADD PUSH2 0x41D JUMP JUMPDEST SWAP5 POP POP PUSH1 0x40 PUSH2 0x4A3 DUP9 DUP3 DUP10 ADD PUSH2 0x447 JUMP JUMPDEST SWAP4 POP POP PUSH1 0x60 PUSH2 0x4B4 DUP9 DUP3 DUP10 ADD PUSH2 0x447 JUMP JUMPDEST SWAP3 POP POP PUSH1 0x80 PUSH2 0x4C5 DUP9 DUP3 DUP10 ADD PUSH2 0x3F3 JUMP JUMPDEST SWAP2 POP POP SWAP3 SWAP6 POP SWAP3 SWAP6 SWAP1 SWAP4 POP JUMP JUMPDEST PUSH32 0x4E487B7100000000000000000000000000000000000000000000000000000000 PUSH0 MSTORE PUSH1 0x11 PUSH1 0x4 MSTORE PUSH1 0x24 PUSH0 REVERT JUMPDEST PUSH0 PUSH2 0x509 DUP3 PUSH2 0x2EE JUMP JUMPDEST SWAP2 POP PUSH2 0x514 DUP4 PUSH2 0x2EE JUMP JUMPDEST SWAP3 POP DUP3 DUP3 MUL PUSH2 0x522 DUP2 PUSH2 0x2EE JUMP JUMPDEST SWAP2 POP DUP3 DUP3 DIV DUP5 EQ DUP4 ISZERO OR PUSH2 0x539 JUMPI PUSH2 0x538 PUSH2 0x4D2 JUMP JUMPDEST JUMPDEST POP SWAP3 SWAP2 POP POP JUMP JUMPDEST PUSH32 0x4E487B7100000000000000000000000000000000000000000000000000000000 PUSH0 MSTORE PUSH1 0x12 PUSH1 0x4 MSTORE PUSH1 0x24 PUSH0 REVERT JUMPDEST PUSH0 PUSH2 0x577 DUP3 PUSH2 0x2EE JUMP JUMPDEST SWAP2 POP PUSH2 0x582 DUP4 PUSH2 0x2EE JUMP JUMPDEST SWAP3 POP DUP3 PUSH2 0x592 JUMPI PUSH2 0x591 PUSH2 0x540 JUMP JUMPDEST JUMPDEST DUP3 DUP3 DIV SWAP1 POP SWAP3 SWAP2 POP POP JUMP INVALID LOG2 PUSH5 0x6970667358 0x22 SLT KECCAK256 0xAC 0xAB SSTORE 0xDC BLOCKHASH 0xE9 0xD0 0xB1 PUSH16 0xACB66E37FABB7F728B57B2739E6DF811 0xDB GASPRICE ADDRESS RETURNDATASIZE 0xF7 0xBB SWAP16 PUSH5 0x736F6C6343 STOP ADDMOD EQ STOP CALLER "
				},
				"gasEstimates": {
					"creation": {
						"codeDepositCost": "298200",
						"executionCost": "46707",
						"totalCost": "344907"
					},
					"external": {
						"fund()": "infinite",
						"funderToAmount(address)": "2779",
						"getChainlinkDataFeedLatestAnswer()": "infinite"
					},
					"internal": {
						"convertEthToUsd(uint256)": "infinite"
					}
				},
				"methodIdentifiers": {
					"fund()": "b60d4288",
					"funderToAmount(address)": "4407e1e8",
					"getChainlinkDataFeedLatestAnswer()": "bea4dfb5"
				}
			},
			"storageLayout": {
				"storage": [
					{
						"astId": 53,
						"contract": "FundMe.sol:FundMe",
						"label": "funderToAmount",
						"offset": 0,
						"slot": "0",
						"type": "t_mapping(t_address,t_uint256)"
					},
					{
						"astId": 60,
						"contract": "FundMe.sol:FundMe",
						"label": "MINIUM_VALUE",
						"offset": 0,
						"slot": "1",
						"type": "t_uint256"
					},
					{
						"astId": 63,
						"contract": "FundMe.sol:FundMe",
						"label": "dataFeed",
						"offset": 0,
						"slot": "2",
						"type": "t_contract(AggregatorV3Interface)45"
					}
				],
				"types": {
					"t_address": {
						"encoding": "inplace",
						"label": "address",
						"numberOfBytes": "20"
					},
					"t_contract(AggregatorV3Interface)45": {
						"encoding": "inplace",
						"label": "contract AggregatorV3Interface",
						"numberOfBytes": "20"
					},
					"t_mapping(t_address,t_uint256)": {
						"encoding": "mapping",
						"key": "t_address",
						"label": "mapping(address => uint256)",
						"numberOfBytes": "32",
						"value": "t_uint256"
					},
					"t_uint256": {
						"encoding": "inplace",
						"label": "uint256",
						"numberOfBytes": "32"
					}
				}
			},
			"userdoc": {
				"kind": "user",
				"methods": {
					"getChainlinkDataFeedLatestAnswer()": {
						"notice": "Returns the latest answer."
					}
				},
				"version": 1
			}
		}
	}
}